{
  "_format": "hh-sol-artifact-1",
  "contractName": "PlatformTreasury",
  "sourceName": "contracts/PlatformTreasury.sol",
  "abi": [
    {
      "inputs": [
        {
          "internalType": "address",
          "name": "_usdtToken",
          "type": "address"
        },
        {
          "internalType": "address",
          "name": "_platformToken",
          "type": "address"
        }
      ],
      "stateMutability": "nonpayable",
      "type": "constructor"
    },
    {
      "inputs": [],
      "name": "AccessControlBadConfirmation",
      "type": "error"
    },
    {
      "inputs": [
        {
          "internalType": "address",
          "name": "account",
          "type": "address"
        },
        {
          "internalType": "bytes32",
          "name": "neededRole",
          "type": "bytes32"
        }
      ],
      "name": "AccessControlUnauthorizedAccount",
      "type": "error"
    },
    {
      "inputs": [],
      "name": "EnforcedPause",
      "type": "error"
    },
    {
      "inputs": [],
      "name": "ExpectedPause",
      "type": "error"
    },
    {
      "inputs": [],
      "name": "ReentrancyGuardReentrantCall",
      "type": "error"
    },
    {
      "inputs": [
        {
          "internalType": "address",
          "name": "token",
          "type": "address"
        }
      ],
      "name": "SafeERC20FailedOperation",
      "type": "error"
    },
    {
      "anonymous": false,
      "inputs": [
        {
          "indexed": true,
          "internalType": "address",
          "name": "user",
          "type": "address"
        },
        {
          "indexed": true,
          "internalType": "address",
          "name": "to",
          "type": "address"
        },
        {
          "indexed": false,
          "internalType": "uint256",
          "name": "amount",
          "type": "uint256"
        }
      ],
      "name": "Deposited",
      "type": "event"
    },
    {
      "anonymous": false,
      "inputs": [
        {
          "indexed": false,
          "internalType": "address",
          "name": "account",
          "type": "address"
        }
      ],
      "name": "Paused",
      "type": "event"
    },
    {
      "anonymous": false,
      "inputs": [
        {
          "indexed": true,
          "internalType": "bytes32",
          "name": "role",
          "type": "bytes32"
        },
        {
          "indexed": true,
          "internalType": "bytes32",
          "name": "previousAdminRole",
          "type": "bytes32"
        },
        {
          "indexed": true,
          "internalType": "bytes32",
          "name": "newAdminRole",
          "type": "bytes32"
        }
      ],
      "name": "RoleAdminChanged",
      "type": "event"
    },
    {
      "anonymous": false,
      "inputs": [
        {
          "indexed": true,
          "internalType": "bytes32",
          "name": "role",
          "type": "bytes32"
        },
        {
          "indexed": true,
          "internalType": "address",
          "name": "account",
          "type": "address"
        },
        {
          "indexed": true,
          "internalType": "address",
          "name": "sender",
          "type": "address"
        }
      ],
      "name": "RoleGranted",
      "type": "event"
    },
    {
      "anonymous": false,
      "inputs": [
        {
          "indexed": true,
          "internalType": "bytes32",
          "name": "role",
          "type": "bytes32"
        },
        {
          "indexed": true,
          "internalType": "address",
          "name": "account",
          "type": "address"
        },
        {
          "indexed": true,
          "internalType": "address",
          "name": "sender",
          "type": "address"
        }
      ],
      "name": "RoleRevoked",
      "type": "event"
    },
    {
      "anonymous": false,
      "inputs": [
        {
          "indexed": true,
          "internalType": "bytes32",
          "name": "billId",
          "type": "bytes32"
        },
        {
          "indexed": true,
          "internalType": "address",
          "name": "payer",
          "type": "address"
        },
        {
          "indexed": true,
          "internalType": "address",
          "name": "agent",
          "type": "address"
        },
        {
          "indexed": false,
          "internalType": "uint256",
          "name": "amount",
          "type": "uint256"
        }
      ],
      "name": "Settled",
      "type": "event"
    },
    {
      "anonymous": false,
      "inputs": [
        {
          "indexed": false,
          "internalType": "address",
          "name": "account",
          "type": "address"
        }
      ],
      "name": "Unpaused",
      "type": "event"
    },
    {
      "anonymous": false,
      "inputs": [
        {
          "indexed": true,
          "internalType": "address",
          "name": "user",
          "type": "address"
        },
        {
          "indexed": true,
          "internalType": "address",
          "name": "to",
          "type": "address"
        },
        {
          "indexed": false,
          "internalType": "uint256",
          "name": "amount",
          "type": "uint256"
        }
      ],
      "name": "Withdrawn",
      "type": "event"
    },
    {
      "inputs": [],
      "name": "DEFAULT_ADMIN_ROLE",
      "outputs": [
        {
          "internalType": "bytes32",
          "name": "",
          "type": "bytes32"
        }
      ],
      "stateMutability": "view",
      "type": "function"
    },
    {
      "inputs": [],
      "name": "PAUSER_ROLE",
      "outputs": [
        {
          "internalType": "bytes32",
          "name": "",
          "type": "bytes32"
        }
      ],
      "stateMutability": "view",
      "type": "function"
    },
    {
      "inputs": [],
      "name": "SYSTEM_ROLE",
      "outputs": [
        {
          "internalType": "bytes32",
          "name": "",
          "type": "bytes32"
        }
      ],
      "stateMutability": "view",
      "type": "function"
    },
    {
      "inputs": [
        {
          "internalType": "uint256",
          "name": "usdtAmount",
          "type": "uint256"
        },
        {
          "internalType": "address",
          "name": "to",
          "type": "address"
        }
      ],
      "name": "deposit",
      "outputs": [],
      "stateMutability": "nonpayable",
      "type": "function"
    },
    {
      "inputs": [
        {
          "internalType": "bytes32",
          "name": "role",
          "type": "bytes32"
        }
      ],
      "name": "getRoleAdmin",
      "outputs": [
        {
          "internalType": "bytes32",
          "name": "",
          "type": "bytes32"
        }
      ],
      "stateMutability": "view",
      "type": "function"
    },
    {
      "inputs": [
        {
          "internalType": "bytes32",
          "name": "role",
          "type": "bytes32"
        },
        {
          "internalType": "address",
          "name": "account",
          "type": "address"
        }
      ],
      "name": "grantRole",
      "outputs": [],
      "stateMutability": "nonpayable",
      "type": "function"
    },
    {
      "inputs": [
        {
          "internalType": "bytes32",
          "name": "role",
          "type": "bytes32"
        },
        {
          "internalType": "address",
          "name": "account",
          "type": "address"
        }
      ],
      "name": "hasRole",
      "outputs": [
        {
          "internalType": "bool",
          "name": "",
          "type": "bool"
        }
      ],
      "stateMutability": "view",
      "type": "function"
    },
    {
      "inputs": [
        {
          "internalType": "bytes32",
          "name": "billId",
          "type": "bytes32"
        }
      ],
      "name": "isSettled",
      "outputs": [
        {
          "internalType": "bool",
          "name": "",
          "type": "bool"
        }
      ],
      "stateMutability": "view",
      "type": "function"
    },
    {
      "inputs": [],
      "name": "pause",
      "outputs": [],
      "stateMutability": "nonpayable",
      "type": "function"
    },
    {
      "inputs": [],
      "name": "paused",
      "outputs": [
        {
          "internalType": "bool",
          "name": "",
          "type": "bool"
        }
      ],
      "stateMutability": "view",
      "type": "function"
    },
    {
      "inputs": [],
      "name": "platformToken",
      "outputs": [
        {
          "internalType": "contract IPlatformToken",
          "name": "",
          "type": "address"
        }
      ],
      "stateMutability": "view",
      "type": "function"
    },
    {
      "inputs": [
        {
          "internalType": "bytes32",
          "name": "role",
          "type": "bytes32"
        },
        {
          "internalType": "address",
          "name": "callerConfirmation",
          "type": "address"
        }
      ],
      "name": "renounceRole",
      "outputs": [],
      "stateMutability": "nonpayable",
      "type": "function"
    },
    {
      "inputs": [
        {
          "internalType": "bytes32",
          "name": "role",
          "type": "bytes32"
        },
        {
          "internalType": "address",
          "name": "account",
          "type": "address"
        }
      ],
      "name": "revokeRole",
      "outputs": [],
      "stateMutability": "nonpayable",
      "type": "function"
    },
    {
      "inputs": [
        {
          "internalType": "bytes32",
          "name": "billId",
          "type": "bytes32"
        },
        {
          "internalType": "address",
          "name": "payer",
          "type": "address"
        },
        {
          "internalType": "address",
          "name": "agent",
          "type": "address"
        },
        {
          "internalType": "uint256",
          "name": "ptAmount",
          "type": "uint256"
        }
      ],
      "name": "settle",
      "outputs": [],
      "stateMutability": "nonpayable",
      "type": "function"
    },
    {
      "inputs": [
        {
          "internalType": "bytes32",
          "name": "",
          "type": "bytes32"
        }
      ],
      "name": "settled",
      "outputs": [
        {
          "internalType": "bool",
          "name": "",
          "type": "bool"
        }
      ],
      "stateMutability": "view",
      "type": "function"
    },
    {
      "inputs": [
        {
          "internalType": "bytes4",
          "name": "interfaceId",
          "type": "bytes4"
        }
      ],
      "name": "supportsInterface",
      "outputs": [
        {
          "internalType": "bool",
          "name": "",
          "type": "bool"
        }
      ],
      "stateMutability": "view",
      "type": "function"
    },
    {
      "inputs": [],
      "name": "unpause",
      "outputs": [],
      "stateMutability": "nonpayable",
      "type": "function"
    },
    {
      "inputs": [],
      "name": "usdtBalance",
      "outputs": [
        {
          "internalType": "uint256",
          "name": "",
          "type": "uint256"
        }
      ],
      "stateMutability": "view",
      "type": "function"
    },
    {
      "inputs": [],
      "name": "usdtToken",
      "outputs": [
        {
          "internalType": "contract IERC20",
          "name": "",
          "type": "address"
        }
      ],
      "stateMutability": "view",
      "type": "function"
    },
    {
      "inputs": [
        {
          "internalType": "uint256",
          "name": "ptAmount",
          "type": "uint256"
        },
        {
          "internalType": "address",
          "name": "to",
          "type": "address"
        }
      ],
      "name": "withdraw",
      "outputs": [],
      "stateMutability": "nonpayable",
      "type": "function"
    }
  ],
  "bytecode": "0x60c06040523480156200001157600080fd5b50604051620011f1380380620011f18339810160408190526200003491620001e2565b60016002556001600160a01b038216620000955760405162461bcd60e51b815260206004820152601460248201527f496e76616c69642055534454206164647265737300000000000000000000000060448201526064015b60405180910390fd5b6001600160a01b038116620000ed5760405162461bcd60e51b815260206004820152601e60248201527f496e76616c696420706c6174666f726d20746f6b656e2061646472657373000060448201526064016200008c565b6001600160a01b03808316608052811660a0526200010d60003362000116565b5050506200021a565b6000828152602081815260408083206001600160a01b038516845290915281205460ff16620001bb576000838152602081815260408083206001600160a01b03861684529091529020805460ff19166001179055620001723390565b6001600160a01b0316826001600160a01b0316847f2f8788117e7eff1d82e926ec794901d17c78024a50270940304540a733656f0d60405160405180910390a4506001620001bf565b5060005b92915050565b80516001600160a01b0381168114620001dd57600080fd5b919050565b60008060408385031215620001f657600080fd5b6200020183620001c5565b91506200021160208401620001c5565b90509250929050565b60805160a051610f8062000271600039600081816102b6015281816103dc015281816107010152818161095201526109d20152600081816102540152818161044d015281816105ac01526106b30152610f806000f3fe608060405234801561001057600080fd5b506004361061012b5760003560e01c80638456cb59116100ad578063bd07f3c911610071578063bd07f3c91461028e578063d1b812cd146102b1578063d547741f146102d8578063d945af1d146102eb578063e63ab1e91461030e57600080fd5b80638456cb59146102195780638dc32b291461022157806391d1485414610234578063a217fddf14610247578063a98ad46c1461024f57600080fd5b80633f4ba83a116100f45780633f4ba83a146101c4578063482edb07146101cc5780635c975abb146101d45780636e553f65146101df57806375071d2a146101f257600080fd5b8062f714ce1461013057806301ffc9a714610145578063248a9ca31461016d5780632f2ff15d1461019e57806336568abe146101b1575b600080fd5b61014361013e366004610e40565b610335565b005b610158610153366004610e6c565b6104c5565b60405190151581526020015b60405180910390f35b61019061017b366004610e9d565b60009081526020819052604090206001015490565b604051908152602001610164565b6101436101ac366004610e40565b6104fc565b6101436101bf366004610e40565b610527565b61014361055f565b610190610594565b60015460ff16610158565b6101436101ed366004610e40565b610624565b6101907f5719df9ef2c4678b547f89e4f5ae410dbf400fc51cf3ded434c55f6adea2c43f81565b61014361079a565b61014361022f366004610eb6565b6107cc565b610158610242366004610e40565b610a8f565b610190600081565b6102767f000000000000000000000000000000000000000000000000000000000000000081565b6040516001600160a01b039091168152602001610164565b61015861029c366004610e9d565b60009081526003602052604090205460ff1690565b6102767f000000000000000000000000000000000000000000000000000000000000000081565b6101436102e6366004610e40565b610ab8565b6101586102f9366004610e9d565b60036020526000908152604090205460ff1681565b6101907f65d7a28e3265b37a6474929f336521b332c1681b933f6cb9f3376673440d862a81565b61033d610add565b610345610b05565b6000821161036e5760405162461bcd60e51b815260040161036590610efa565b60405180910390fd5b6001600160a01b0381166103c05760405162461bcd60e51b8152602060048201526019602482015278496e76616c696420726563697069656e74206164647265737360381b6044820152606401610365565b60405163079cc67960e41b8152336004820152602481018390527f00000000000000000000000000000000000000000000000000000000000000006001600160a01b0316906379cc679090604401600060405180830381600087803b15801561042857600080fd5b505af115801561043c573d6000803e3d6000fd5b506104769250506001600160a01b037f00000000000000000000000000000000000000000000000000000000000000001690508284610b2b565b6040518281526001600160a01b0382169033907fd1c19fbcd4551a5edfb66d43d2e337c04837afda3482b42bdf569a8fccdae5fb906020015b60405180910390a36104c16001600255565b5050565b60006001600160e01b03198216637965db0b60e01b14806104f657506301ffc9a760e01b6001600160e01b03198316145b92915050565b60008281526020819052604090206001015461051781610b8a565b6105218383610b94565b50505050565b6001600160a01b03811633146105505760405163334bd91960e11b815260040160405180910390fd5b61055a8282610c26565b505050565b7f65d7a28e3265b37a6474929f336521b332c1681b933f6cb9f3376673440d862a61058981610b8a565b610591610c91565b50565b6040516370a0823160e01b81523060048201526000907f00000000000000000000000000000000000000000000000000000000000000006001600160a01b0316906370a0823190602401602060405180830381865afa1580156105fb573d6000803e3d6000fd5b505050506040513d601f19601f8201168201806040525081019061061f9190610f31565b905090565b61062c610add565b610634610b05565b600082116106545760405162461bcd60e51b815260040161036590610efa565b6001600160a01b0381166106a65760405162461bcd60e51b8152602060048201526019602482015278496e76616c696420726563697069656e74206164647265737360381b6044820152606401610365565b6106db6001600160a01b037f000000000000000000000000000000000000000000000000000000000000000016333085610ce3565b6040516340c10f1960e01b81526001600160a01b038281166004830152602482018490527f000000000000000000000000000000000000000000000000000000000000000016906340c10f1990604401600060405180830381600087803b15801561074557600080fd5b505af1158015610759573d6000803e3d6000fd5b50506040518481526001600160a01b03841692503391507f8752a472e571a816aea92eec8dae9baf628e840f4929fbcc2d155e6233ff68a7906020016104af565b7f65d7a28e3265b37a6474929f336521b332c1681b933f6cb9f3376673440d862a6107c481610b8a565b610591610d1c565b7f5719df9ef2c4678b547f89e4f5ae410dbf400fc51cf3ded434c55f6adea2c43f6107f681610b8a565b6107fe610add565b610806610b05565b60008581526003602052604090205460ff16156108575760405162461bcd60e51b815260206004820152600f60248201526e105b1c9958591e481cd95d1d1b1959608a1b6044820152606401610365565b6001600160a01b0384166108a55760405162461bcd60e51b8152602060048201526015602482015274496e76616c6964207061796572206164647265737360581b6044820152606401610365565b6001600160a01b0383166108f35760405162461bcd60e51b8152602060048201526015602482015274496e76616c6964206167656e74206164647265737360581b6044820152606401610365565b600082116109135760405162461bcd60e51b815260040161036590610efa565b60008581526003602052604090819020805460ff191660011790555163079cc67960e41b81526001600160a01b038581166004830152602482018490527f000000000000000000000000000000000000000000000000000000000000000016906379cc679090604401600060405180830381600087803b15801561099657600080fd5b505af11580156109aa573d6000803e3d6000fd5b50506040516340c10f1960e01b81526001600160a01b038681166004830152602482018690527f00000000000000000000000000000000000000000000000000000000000000001692506340c10f199150604401600060405180830381600087803b158015610a1857600080fd5b505af1158015610a2c573d6000803e3d6000fd5b50505050826001600160a01b0316846001600160a01b0316867f4190759d37d5cfe7a1a70e06ec7508a05d12fd9cb76f353da1c9e028e5a48dcf85604051610a7691815260200190565b60405180910390a4610a886001600255565b5050505050565b6000918252602082815260408084206001600160a01b0393909316845291905290205460ff1690565b600082815260208190526040902060010154610ad381610b8a565b6105218383610c26565b6002805403610aff57604051633ee5aeb560e01b815260040160405180910390fd5b60028055565b60015460ff1615610b295760405163d93c066560e01b815260040160405180910390fd5b565b6040516001600160a01b0383811660248301526044820183905261055a91859182169063a9059cbb906064015b604051602081830303815290604052915060e01b6020820180516001600160e01b038381831617835250505050610d57565b6105918133610dc8565b6000610ba08383610a8f565b610c1e576000838152602081815260408083206001600160a01b03861684529091529020805460ff19166001179055610bd63390565b6001600160a01b0316826001600160a01b0316847f2f8788117e7eff1d82e926ec794901d17c78024a50270940304540a733656f0d60405160405180910390a45060016104f6565b5060006104f6565b6000610c328383610a8f565b15610c1e576000838152602081815260408083206001600160a01b0386168085529252808320805460ff1916905551339286917ff6391f5c32d9c69d2a47ea670b442974b53935d1edc7fd64eb21e047a839171b9190a45060016104f6565b610c99610e01565b6001805460ff191690557f5db9ee0a495bf2e6ff9c91a7834c1ba4fdd244a5e8aa4e537bd38aeae4b073aa335b6040516001600160a01b03909116815260200160405180910390a1565b6040516001600160a01b0384811660248301528381166044830152606482018390526105219186918216906323b872dd90608401610b58565b610d24610b05565b6001805460ff1916811790557f62e78cea01bee320cd4e420270b5ea74000d11b0c9f74754ebdbfc544b05a25833610cc6565b600080602060008451602086016000885af180610d7a576040513d6000823e3d81fd5b50506000513d91508115610d92578060011415610d9f565b6001600160a01b0384163b155b1561052157604051635274afe760e01b81526001600160a01b0385166004820152602401610365565b610dd28282610a8f565b6104c15760405163e2517d3f60e01b81526001600160a01b038216600482015260248101839052604401610365565b60015460ff16610b2957604051638dfc202b60e01b815260040160405180910390fd5b80356001600160a01b0381168114610e3b57600080fd5b919050565b60008060408385031215610e5357600080fd5b82359150610e6360208401610e24565b90509250929050565b600060208284031215610e7e57600080fd5b81356001600160e01b031981168114610e9657600080fd5b9392505050565b600060208284031215610eaf57600080fd5b5035919050565b60008060008060808587031215610ecc57600080fd5b84359350610edc60208601610e24565b9250610eea60408601610e24565b9396929550929360600135925050565b6020808252601d908201527f416d6f756e74206d7573742062652067726561746572207468616e2030000000604082015260600190565b600060208284031215610f4357600080fd5b505191905056fea26469706673582212200ea315c69fd267ea613451496fc06806e4fe54a55c2564155b43cfcbd249c64964736f6c63430008180033",
  "linkReferences": {},
  "deployedLinkReferences": {}
}