{
  "_format": "hh-sol-artifact-1",
  "contractName": "PlatformToken",
  "sourceName": "contracts/PlatformToken.sol",
  "abi": [
    {
      "inputs": [],
      "stateMutability": "nonpayable",
      "type": "constructor"
    },
    {
      "inputs": [],
      "name": "AccessControlBadConfirmation",
      "type": "error"
    },
    {
      "inputs": [
        {
          "internalType": "address",
          "name": "account",
          "type": "address"
        },
        {
          "internalType": "bytes32",
          "name": "neededRole",
          "type": "bytes32"
        }
      ],
      "name": "AccessControlUnauthorizedAccount",
      "type": "error"
    },
    {
      "inputs": [
        {
          "internalType": "address",
          "name": "spender",
          "type": "address"
        },
        {
          "internalType": "uint256",
          "name": "allowance",
          "type": "uint256"
        },
        {
          "internalType": "uint256",
          "name": "needed",
          "type": "uint256"
        }
      ],
      "name": "ERC20InsufficientAllowance",
      "type": "error"
    },
    {
      "inputs": [
        {
          "internalType": "address",
          "name": "sender",
          "type": "address"
        },
        {
          "internalType": "uint256",
          "name": "balance",
          "type": "uint256"
        },
        {
          "internalType": "uint256",
          "name": "needed",
          "type": "uint256"
        }
      ],
      "name": "ERC20InsufficientBalance",
      "type": "error"
    },
    {
      "inputs": [
        {
          "internalType": "address",
          "name": "approver",
          "type": "address"
        }
      ],
      "name": "ERC20InvalidApprover",
      "type": "error"
    },
    {
      "inputs": [
        {
          "internalType": "address",
          "name": "receiver",
          "type": "address"
        }
      ],
      "name": "ERC20InvalidReceiver",
      "type": "error"
    },
    {
      "inputs": [
        {
          "internalType": "address",
          "name": "sender",
          "type": "address"
        }
      ],
      "name": "ERC20InvalidSender",
      "type": "error"
    },
    {
      "inputs": [
        {
          "internalType": "address",
          "name": "spender",
          "type": "address"
        }
      ],
      "name": "ERC20InvalidSpender",
      "type": "error"
    },
    {
      "inputs": [],
      "name": "EnforcedPause",
      "type": "error"
    },
    {
      "inputs": [],
      "name": "ExpectedPause",
      "type": "error"
    },
    {
      "anonymous": false,
      "inputs": [
        {
          "indexed": true,
          "internalType": "address",
          "name": "owner",
          "type": "address"
        },
        {
          "indexed": true,
          "internalType": "address",
          "name": "spender",
          "type": "address"
        },
        {
          "indexed": false,
          "internalType": "uint256",
          "name": "value",
          "type": "uint256"
        }
      ],
      "name": "Approval",
      "type": "event"
    },
    {
      "anonymous": false,
      "inputs": [
        {
          "indexed": false,
          "internalType": "address",
          "name": "account",
          "type": "address"
        }
      ],
      "name": "Paused",
      "type": "event"
    },
    {
      "anonymous": false,
      "inputs": [
        {
          "indexed": true,
          "internalType": "bytes32",
          "name": "role",
          "type": "bytes32"
        },
        {
          "indexed": true,
          "internalType": "bytes32",
          "name": "previousAdminRole",
          "type": "bytes32"
        },
        {
          "indexed": true,
          "internalType": "bytes32",
          "name": "newAdminRole",
          "type": "bytes32"
        }
      ],
      "name": "RoleAdminChanged",
      "type": "event"
    },
    {
      "anonymous": false,
      "inputs": [
        {
          "indexed": true,
          "internalType": "bytes32",
          "name": "role",
          "type": "bytes32"
        },
        {
          "indexed": true,
          "internalType": "address",
          "name": "account",
          "type": "address"
        },
        {
          "indexed": true,
          "internalType": "address",
          "name": "sender",
          "type": "address"
        }
      ],
      "name": "RoleGranted",
      "type": "event"
    },
    {
      "anonymous": false,
      "inputs": [
        {
          "indexed": true,
          "internalType": "bytes32",
          "name": "role",
          "type": "bytes32"
        },
        {
          "indexed": true,
          "internalType": "address",
          "name": "account",
          "type": "address"
        },
        {
          "indexed": true,
          "internalType": "address",
          "name": "sender",
          "type": "address"
        }
      ],
      "name": "RoleRevoked",
      "type": "event"
    },
    {
      "anonymous": false,
      "inputs": [
        {
          "indexed": true,
          "internalType": "address",
          "name": "from",
          "type": "address"
        },
        {
          "indexed": true,
          "internalType": "address",
          "name": "to",
          "type": "address"
        },
        {
          "indexed": false,
          "internalType": "uint256",
          "name": "value",
          "type": "uint256"
        }
      ],
      "name": "Transfer",
      "type": "event"
    },
    {
      "anonymous": false,
      "inputs": [
        {
          "indexed": false,
          "internalType": "address",
          "name": "account",
          "type": "address"
        }
      ],
      "name": "Unpaused",
      "type": "event"
    },
    {
      "inputs": [],
      "name": "DEFAULT_ADMIN_ROLE",
      "outputs": [
        {
          "internalType": "bytes32",
          "name": "",
          "type": "bytes32"
        }
      ],
      "stateMutability": "view",
      "type": "function"
    },
    {
      "inputs": [],
      "name": "PAUSER_ROLE",
      "outputs": [
        {
          "internalType": "bytes32",
          "name": "",
          "type": "bytes32"
        }
      ],
      "stateMutability": "view",
      "type": "function"
    },
    {
      "inputs": [],
      "name": "TREASURY_ROLE",
      "outputs": [
        {
          "internalType": "bytes32",
          "name": "",
          "type": "bytes32"
        }
      ],
      "stateMutability": "view",
      "type": "function"
    },
    {
      "inputs": [
        {
          "internalType": "address",
          "name": "owner",
          "type": "address"
        },
        {
          "internalType": "address",
          "name": "spender",
          "type": "address"
        }
      ],
      "name": "allowance",
      "outputs": [
        {
          "internalType": "uint256",
          "name": "",
          "type": "uint256"
        }
      ],
      "stateMutability": "view",
      "type": "function"
    },
    {
      "inputs": [
        {
          "internalType": "address",
          "name": "spender",
          "type": "address"
        },
        {
          "internalType": "uint256",
          "name": "value",
          "type": "uint256"
        }
      ],
      "name": "approve",
      "outputs": [
        {
          "internalType": "bool",
          "name": "",
          "type": "bool"
        }
      ],
      "stateMutability": "nonpayable",
      "type": "function"
    },
    {
      "inputs": [
        {
          "internalType": "address",
          "name": "account",
          "type": "address"
        }
      ],
      "name": "balanceOf",
      "outputs": [
        {
          "internalType": "uint256",
          "name": "",
          "type": "uint256"
        }
      ],
      "stateMutability": "view",
      "type": "function"
    },
    {
      "inputs": [
        {
          "internalType": "address",
          "name": "from",
          "type": "address"
        },
        {
          "internalType": "uint256",
          "name": "amount",
          "type": "uint256"
        }
      ],
      "name": "burnFrom",
      "outputs": [],
      "stateMutability": "nonpayable",
      "type": "function"
    },
    {
      "inputs": [],
      "name": "decimals",
      "outputs": [
        {
          "internalType": "uint8",
          "name": "",
          "type": "uint8"
        }
      ],
      "stateMutability": "pure",
      "type": "function"
    },
    {
      "inputs": [
        {
          "internalType": "bytes32",
          "name": "role",
          "type": "bytes32"
        }
      ],
      "name": "getRoleAdmin",
      "outputs": [
        {
          "internalType": "bytes32",
          "name": "",
          "type": "bytes32"
        }
      ],
      "stateMutability": "view",
      "type": "function"
    },
    {
      "inputs": [
        {
          "internalType": "bytes32",
          "name": "role",
          "type": "bytes32"
        },
        {
          "internalType": "address",
          "name": "account",
          "type": "address"
        }
      ],
      "name": "grantRole",
      "outputs": [],
      "stateMutability": "nonpayable",
      "type": "function"
    },
    {
      "inputs": [
        {
          "internalType": "bytes32",
          "name": "role",
          "type": "bytes32"
        },
        {
          "internalType": "address",
          "name": "account",
          "type": "address"
        }
      ],
      "name": "hasRole",
      "outputs": [
        {
          "internalType": "bool",
          "name": "",
          "type": "bool"
        }
      ],
      "stateMutability": "view",
      "type": "function"
    },
    {
      "inputs": [
        {
          "internalType": "address",
          "name": "to",
          "type": "address"
        },
        {
          "internalType": "uint256",
          "name": "amount",
          "type": "uint256"
        }
      ],
      "name": "mint",
      "outputs": [],
      "stateMutability": "nonpayable",
      "type": "function"
    },
    {
      "inputs": [],
      "name": "name",
      "outputs": [
        {
          "internalType": "string",
          "name": "",
          "type": "string"
        }
      ],
      "stateMutability": "view",
      "type": "function"
    },
    {
      "inputs": [],
      "name": "pause",
      "outputs": [],
      "stateMutability": "nonpayable",
      "type": "function"
    },
    {
      "inputs": [],
      "name": "paused",
      "outputs": [
        {
          "internalType": "bool",
          "name": "",
          "type": "bool"
        }
      ],
      "stateMutability": "view",
      "type": "function"
    },
    {
      "inputs": [
        {
          "internalType": "bytes32",
          "name": "role",
          "type": "bytes32"
        },
        {
          "internalType": "address",
          "name": "callerConfirmation",
          "type": "address"
        }
      ],
      "name": "renounceRole",
      "outputs": [],
      "stateMutability": "nonpayable",
      "type": "function"
    },
    {
      "inputs": [
        {
          "internalType": "bytes32",
          "name": "role",
          "type": "bytes32"
        },
        {
          "internalType": "address",
          "name": "account",
          "type": "address"
        }
      ],
      "name": "revokeRole",
      "outputs": [],
      "stateMutability": "nonpayable",
      "type": "function"
    },
    {
      "inputs": [
        {
          "internalType": "bytes4",
          "name": "interfaceId",
          "type": "bytes4"
        }
      ],
      "name": "supportsInterface",
      "outputs": [
        {
          "internalType": "bool",
          "name": "",
          "type": "bool"
        }
      ],
      "stateMutability": "view",
      "type": "function"
    },
    {
      "inputs": [],
      "name": "symbol",
      "outputs": [
        {
          "internalType": "string",
          "name": "",
          "type": "string"
        }
      ],
      "stateMutability": "view",
      "type": "function"
    },
    {
      "inputs": [],
      "name": "totalSupply",
      "outputs": [
        {
          "internalType": "uint256",
          "name": "",
          "type": "uint256"
        }
      ],
      "stateMutability": "view",
      "type": "function"
    },
    {
      "inputs": [
        {
          "internalType": "address",
          "name": "to",
          "type": "address"
        },
        {
          "internalType": "uint256",
          "name": "value",
          "type": "uint256"
        }
      ],
      "name": "transfer",
      "outputs": [
        {
          "internalType": "bool",
          "name": "",
          "type": "bool"
        }
      ],
      "stateMutability": "nonpayable",
      "type": "function"
    },
    {
      "inputs": [
        {
          "internalType": "address",
          "name": "from",
          "type": "address"
        },
        {
          "internalType": "address",
          "name": "to",
          "type": "address"
        },
        {
          "internalType": "uint256",
          "name": "value",
          "type": "uint256"
        }
      ],
      "name": "transferFrom",
      "outputs": [
        {
          "internalType": "bool",
          "name": "",
          "type": "bool"
        }
      ],
      "stateMutability": "nonpayable",
      "type": "function"
    },
    {
      "inputs": [],
      "name": "unpause",
      "outputs": [],
      "stateMutability": "nonpayable",
      "type": "function"
    }
  ],
  "bytecode": "0x60806040523480156200001157600080fd5b506040518060400160405280601481526020017f4167656e7420506c6174666f726d20546f6b656e0000000000000000000000008152506040518060400160405280600381526020016210541560ea1b8152508160039081620000759190620001f7565b506004620000848282620001f7565b5062000096915060009050336200009d565b50620002c3565b60008281526005602090815260408083206001600160a01b038516845290915281205460ff16620001465760008381526005602090815260408083206001600160a01b03861684529091529020805460ff19166001179055620000fd3390565b6001600160a01b0316826001600160a01b0316847f2f8788117e7eff1d82e926ec794901d17c78024a50270940304540a733656f0d60405160405180910390a45060016200014a565b5060005b92915050565b634e487b7160e01b600052604160045260246000fd5b600181811c908216806200017b57607f821691505b6020821081036200019c57634e487b7160e01b600052602260045260246000fd5b50919050565b601f821115620001f2576000816000526020600020601f850160051c81016020861015620001cd5750805b601f850160051c820191505b81811015620001ee57828155600101620001d9565b5050505b505050565b81516001600160401b0381111562000213576200021362000150565b6200022b8162000224845462000166565b84620001a2565b602080601f8311600181146200026357600084156200024a5750858301515b600019600386901b1c1916600185901b178555620001ee565b600085815260208120601f198616915b82811015620002945788860151825594840194600190910190840162000273565b5085821015620002b35787850151600019600388901b60f8161c191681555b5050505050600190811b01905550565b610dc580620002d36000396000f3fe608060405234801561001057600080fd5b506004361061014d5760003560e01c80635c975abb116100c3578063a217fddf1161007c578063a217fddf146102a6578063a9059cbb146102ae578063d11a57ec146102c1578063d547741f146102e8578063dd62ed3e146102fb578063e63ab1e91461033457600080fd5b80635c975abb1461023c57806370a082311461024757806379cc6790146102705780638456cb591461028357806391d148541461028b57806395d89b411461029e57600080fd5b8063248a9ca311610115578063248a9ca3146101c75780632f2ff15d146101ea578063313ce567146101ff57806336568abe1461020e5780633f4ba83a1461022157806340c10f191461022957600080fd5b806301ffc9a71461015257806306fdde031461017a578063095ea7b31461018f57806318160ddd146101a257806323b872dd146101b4575b600080fd5b610165610160366004610ba8565b61035b565b60405190151581526020015b60405180910390f35b610182610392565b6040516101719190610bd9565b61016561019d366004610c44565b610424565b6002545b604051908152602001610171565b6101656101c2366004610c6e565b61043c565b6101a66101d5366004610caa565b60009081526005602052604090206001015490565b6101fd6101f8366004610cc3565b610460565b005b60405160068152602001610171565b6101fd61021c366004610cc3565b61048b565b6101fd6104c3565b6101fd610237366004610c44565b6104f8565b60065460ff16610165565b6101a6610255366004610cef565b6001600160a01b031660009081526020819052604090205490565b6101fd61027e366004610c44565b610534565b6101fd61057b565b610165610299366004610cc3565b6105ad565b6101826105d8565b6101a6600081565b6101656102bc366004610c44565b6105e7565b6101a67fe1dcbdb91df27212a29bc27177c840cf2f819ecf2187432e1fac86c2dd5dfca981565b6101fd6102f6366004610cc3565b6105f5565b6101a6610309366004610d0a565b6001600160a01b03918216600090815260016020908152604080832093909416825291909152205490565b6101a67f65d7a28e3265b37a6474929f336521b332c1681b933f6cb9f3376673440d862a81565b60006001600160e01b03198216637965db0b60e01b148061038c57506301ffc9a760e01b6001600160e01b03198316145b92915050565b6060600380546103a190610d34565b80601f01602080910402602001604051908101604052809291908181526020018280546103cd90610d34565b801561041a5780601f106103ef5761010080835404028352916020019161041a565b820191906000526020600020905b8154815290600101906020018083116103fd57829003601f168201915b5050505050905090565b60003361043281858561061a565b5060019392505050565b60003361044a858285610627565b6104558585856106a5565b506001949350505050565b60008281526005602052604090206001015461047b81610704565b610485838361070e565b50505050565b6001600160a01b03811633146104b45760405163334bd91960e11b815260040160405180910390fd5b6104be82826107a2565b505050565b7f65d7a28e3265b37a6474929f336521b332c1681b933f6cb9f3376673440d862a6104ed81610704565b6104f561080f565b50565b7fe1dcbdb91df27212a29bc27177c840cf2f819ecf2187432e1fac86c2dd5dfca961052281610704565b61052a610861565b6104be8383610887565b7fe1dcbdb91df27212a29bc27177c840cf2f819ecf2187432e1fac86c2dd5dfca961055e81610704565b610566610861565b610571833384610627565b6104be83836108c1565b7f65d7a28e3265b37a6474929f336521b332c1681b933f6cb9f3376673440d862a6105a581610704565b6104f56108f7565b60009182526005602090815260408084206001600160a01b0393909316845291905290205460ff1690565b6060600480546103a190610d34565b6000336104328185856106a5565b60008281526005602052604090206001015461061081610704565b61048583836107a2565b6104be8383836001610934565b6001600160a01b03838116600090815260016020908152604080832093861683529290522054600019811015610485578181101561069657604051637dc7a0d960e11b81526001600160a01b038416600482015260248101829052604481018390526064015b60405180910390fd5b61048584848484036000610934565b6001600160a01b0383166106cf57604051634b637e8f60e11b81526000600482015260240161068d565b6001600160a01b0382166106f95760405163ec442f0560e01b81526000600482015260240161068d565b6104be838383610a09565b6104f58133610a14565b600061071a83836105ad565b61079a5760008381526005602090815260408083206001600160a01b03861684529091529020805460ff191660011790556107523390565b6001600160a01b0316826001600160a01b0316847f2f8788117e7eff1d82e926ec794901d17c78024a50270940304540a733656f0d60405160405180910390a450600161038c565b50600061038c565b60006107ae83836105ad565b1561079a5760008381526005602090815260408083206001600160a01b0386168085529252808320805460ff1916905551339286917ff6391f5c32d9c69d2a47ea670b442974b53935d1edc7fd64eb21e047a839171b9190a450600161038c565b610817610a4d565b6006805460ff191690557f5db9ee0a495bf2e6ff9c91a7834c1ba4fdd244a5e8aa4e537bd38aeae4b073aa335b6040516001600160a01b03909116815260200160405180910390a1565b60065460ff16156108855760405163d93c066560e01b815260040160405180910390fd5b565b6001600160a01b0382166108b15760405163ec442f0560e01b81526000600482015260240161068d565b6108bd60008383610a09565b5050565b6001600160a01b0382166108eb57604051634b637e8f60e11b81526000600482015260240161068d565b6108bd82600083610a09565b6108ff610861565b6006805460ff191660011790557f62e78cea01bee320cd4e420270b5ea74000d11b0c9f74754ebdbfc544b05a2586108443390565b6001600160a01b03841661095e5760405163e602df0560e01b81526000600482015260240161068d565b6001600160a01b03831661098857604051634a1406b160e11b81526000600482015260240161068d565b6001600160a01b038085166000908152600160209081526040808320938716835292905220829055801561048557826001600160a01b0316846001600160a01b03167f8c5be1e5ebec7d5bd14f71427d1e84f3dd0314c0f7b2291e5b200ac8c7c3b925846040516109fb91815260200190565b60405180910390a350505050565b6104be838383610a70565b610a1e82826105ad565b6108bd5760405163e2517d3f60e01b81526001600160a01b03821660048201526024810183905260440161068d565b60065460ff1661088557604051638dfc202b60e01b815260040160405180910390fd5b610a78610861565b6104be8383836001600160a01b038316610aa9578060026000828254610a9e9190610d6e565b90915550610b1b9050565b6001600160a01b03831660009081526020819052604090205481811015610afc5760405163391434e360e21b81526001600160a01b0385166004820152602481018290526044810183905260640161068d565b6001600160a01b03841660009081526020819052604090209082900390555b6001600160a01b038216610b3757600280548290039055610b56565b6001600160a01b03821660009081526020819052604090208054820190555b816001600160a01b0316836001600160a01b03167fddf252ad1be2c89b69c2b068fc378daa952ba7f163c4a11628f55a4df523b3ef83604051610b9b91815260200190565b60405180910390a3505050565b600060208284031215610bba57600080fd5b81356001600160e01b031981168114610bd257600080fd5b9392505050565b60006020808352835180602085015260005b81811015610c0757858101830151858201604001528201610beb565b506000604082860101526040601f19601f8301168501019250505092915050565b80356001600160a01b0381168114610c3f57600080fd5b919050565b60008060408385031215610c5757600080fd5b610c6083610c28565b946020939093013593505050565b600080600060608486031215610c8357600080fd5b610c8c84610c28565b9250610c9a60208501610c28565b9150604084013590509250925092565b600060208284031215610cbc57600080fd5b5035919050565b60008060408385031215610cd657600080fd5b82359150610ce660208401610c28565b90509250929050565b600060208284031215610d0157600080fd5b610bd282610c28565b60008060408385031215610d1d57600080fd5b610d2683610c28565b9150610ce660208401610c28565b600181811c90821680610d4857607f821691505b602082108103610d6857634e487b7160e01b600052602260045260246000fd5b50919050565b8082018082111561038c57634e487b7160e01b600052601160045260246000fdfea26469706673582212202a4d178f8fbb53ba428ce9c955ba2a0827db70f1ef10416720d175b7315b3ccc64736f6c63430008180033",
  "linkReferences": {},
  "deployedLinkReferences": {}
}